S01300007572735F70726F6A656B742E7372656359
S11300000C942A000C9425010C9447000C9447008E
S11300100C9447000C9447000C9447000C94470040
S11300200C9453010C9447000C9447000C94470023
S11300300C9447000C9447000C9447000C94470020
S11300400C9447000C9447000C9447000C94470010
S11300500C94470011241FBECFE5D4E0DEBFCDBF12
S113006010E0A0E6B0E0E8E6F6E102C005900D92EB
S1130070A43FB107D9F721E0A4EFB0E001C01D927D
S1130080A932B207E1F70E94E1080C94320B0C94F8
S11300900000C79A00C0C7980895CF93C82F66235D
S11300A011F0C59A01C0C598C698D49AD59AD69A23
S11300B0D79ADF98DE98DD98DC98CC230CF4DF9A8D
S11300C0C6FDDE9AC5FDDD9AC4FDDC9A0E94490096
S11300D0DF98DE98DD98DC98C3FDDF9AC2FDDE9AD6
S11300E0C1FDDD9AC0FDDC9A0E944900DC9ADD9ACC
S11300F0DE9ADF9ACF910895882311F0C59A01C042
S1130100C598C69AD498D598D698D798C79A00C057
S1130110CC9B02C080E101C080E0CD998062CE9981
S11301208064CF998068C79800C0C79A00C0CC99F2
S11301308160CD998260CE998460CF998860C79898
S1130140089580E00E947C008823DCF383E090E043
S11301500197F1F780E00E947C000895CF93C82FA7
S11301600E94A10060E08C2F0E944D00CF91089561
S1130170611104C080580E94AE00089580540E940A
S1130180AE00089581E00E94AE000895CF93C82F79
S11301900E94A100CA3049F4803410F080E001C00C
S11301A080E480580E94AE0004C061E08C2F0E945D
S11301B04D00CF910895CF93DF93EC012196FC017C
S11301C08081882329F00E94C60089918111FBCF88
S11301D0DF91CF9108951F93CF93DF93182FBD9A8A
S11301E0BE9ABF9AD49AD59AD69AD79A80E393E7BF
S11301F00197F1F7DD9ADC9A0E94490080EF93E2BF
S11302000197F1F70E944900C5E7D0E0CE010197BC
S1130210F1F70E944900CE010197F1F7DC980E94A2
S113022049002197F1F788E20E94AE0088E00E941D
S1130230AE000E94C20086E00E94AE00812F0E94A0
S1130240AE00DF91CF911F9108951F920F920FB6C8
S11302500F9211248F939F93AF93BF938091F600D5
S1130260811107C081E08093F6008EB581608EBD58
S113027011C01092F6008CB59DB5A0E0B0E080935B
S1130280250190932601A0932701B09328011EBC59
S11302901DBC1CBCBF91AF919F918F910F900FBE5D
S11302A00F901F9018951F920F920FB60F92112462
S11302B08F939F93AF93BF9380910701909108010F
S11302C0A0910901B0910A010196A11DB11D80936D
S11302D0070190930801A0930901B0930A01BF910B
S11302E0AF919F918F910F900FBE0F901F90189513
S11302F010920701109208011092090110920A014C
S113030010920D0110920E0110920F011092100123
S113031010922501109226011092270110922801B3
S113032010922201109221011092240110922301B3
S11303301092F6001092F5008FE08093F40081E0B3
S113034080930C0110920B01109211011092F7008E
S1130350089581E084BB8FEF85BB089580E181BB64
S113036012BA8CE00E94EB00089583E08ABB1BBAAA
S113037008958FE087BB8FEF88BB089584E089BF21
S11303801FBC8BB780648BBF85B7816085BF7894B1
S113039008951FBC1EBC1DBC1CBC089510920D0109
S11303A010920E0110920F0110921001109222016E
S11303B010922101089581E28FBD8AE08EBD80E60E
S11303C090E099BD88BD08952FEF8FE794E0215008
S11303D080409040E1F700C000000E94DB010E94D1
S11303E0C20060E082E00E94B80080E690E00E94D3
S11303F0DB0061E081E00E94B8008CE690E00E949E
S1130400DB002FEF8FEB91E2215080409040E1F729
S113041000C0000008950E94B8008BE790E00E949D
S1130420DB0008950E94B8008DE790E00E94DB0095
S113043008958F929F92AF92BF92CF92DF92EF92E4
S1130440FF92CF9360E080E00E94B8008FE790E0D5
S11304500E94DB00C091F40060912101709122019F
S11304608C2F90E06817790748F0C5E060E08C2F86
S11304700E940B02CF5FCF30C9F73DC180E090E00E
S11304800E9497096B017C016C2F70E080E090E082
S11304900E9499094B015C012DEC3CEC4CEC5DE3B2
S11304A00E944E0A9B01AC01C701B6010E94F108EB
S11304B018164CF0C5E060E08C2F0E941202CF5F4A
S11304C0CF30C9F718C12DEC3CEC4CE45EE3C50118
S11304D0B4010E944E0A9B01AC01C701B6010E94FF
S11304E0F10818164CF0C5E060E08C2F0E9412024F
S11304F0CF5FCE30C9F7F4C02AE939E949E95EE3B0
S1130500C501B4010E944E0A9B01AC01C701B601AA
S11305100E94F10818168CF0C5E060E08C2F0E9450
S11305201202CF5FCD30C9F760E08DE00E940B026C
S113053060E08EE00E940B02DEC02DEC3CEC4CEC43
S11305405EE3C501B4010E944E0A9B01AC01C701E0
S1130550B6010E94F1081816ACF0C5E060E08C2FDB
S11305600E941202CF5FCC30C9F760E08CE00E9499
S11305700B0260E08DE00E940B0260E08EE00E94BE
S11305800B02B9C020E030E040E05FE3C501B401F4
S11305900E944E0A9B01AC01C701B6010E94F108FA
S11305A0181684F0C5E060E08C2F0E941202CF5F21
S11305B0CB30C9F760E08C2F0E940B02CF5FCF30A5
S11305C0C9F799C02AE939E949E15FE3C501B401F2
S11305D00E944E0A9B01AC01C701B6010E94F108BA
S11305E0181684F0C5E060E08C2F0E941202CF5FE1
S11305F0CA30C9F760E08C2F0E940B02CF5FCF3066
S1130600C9F779C023E333E343E35FE3C501B401EE
S11306100E944E0A9B01AC01C701B6010E94F10879
S1130620181684F0C5E060E08C2F0E941202CF5FA0
S1130630C930C9F760E08C2F0E940B02CF5FCF3026
S1130640C9F759C02DEC3CEC4CE45FE3C501B4019F
S11306500E944E0A9B01AC01C701B6010E94F10839
S11306601816ACF060E085E00E94120260E086E0BB
S11306700E94120260E087E00E941202C8E060E07B
S11306808C2F0E940B02CF5FCF30C9F734C026E60F
S113069036E646E65FE3C501B4010E944E0A9B01BB
S11306A0AC01C701B6010E94F1081816F4F060E02D
S11306B085E00E94120260E086E00E941202C7E018
S11306C060E08C2F0E940B02CF5FCF30C9F713C0BC
S11306D060E08C2F0E940B02CF5FCF30C9F70BC0B4
S11306E060E08EE00E940B0206C060E085E00E949C
S11306F01202C6E0EDCFCF91FF90EF90DF90CF9044
S1130700BF90AF909F908F9008958F929F92AF92D9
S1130710BF92CF92DF92EF92FF92CF9361E080E09D
S11307200E94B80082E890E00E94DB00C091F400CF
S113073060912301709124018C2F90E06817790750
S113074048F0C5E061E08C2F0E940B02CF5FCF30F0
S1130750C9F73DC180E090E00E9497096B017C01DC
S11307606C2F70E080E090E00E9499094B015C01DD
S11307702DEC3CEC4CEC5DE30E944E0A9B01AC0179
S1130780C701B6010E94F10818164CF0C5E061E0FB
S11307908C2F0E941202CF5FCF30C9F718C12DEC05
S11307A03CEC4CE45EE3C501B4010E944E0A9B019B
S11307B0AC01C701B6010E94F10818164CF0C5E05F
S11307C061E08C2F0E941202CF5FCE30C9F7F4C0D3
S11307D02AE939E949E95EE3C501B4010E944E0AF8
S11307E09B01AC01C701B6010E94F10818168CF0F8
S11307F0C5E061E08C2F0E941202CF5FCD30C9F7B3
S113080061E08DE00E940B0261E08EE00E940B0229
S1130810DEC02DEC3CEC4CEC5EE3C501B4010E945F
S11308204E0A9B01AC01C701B6010E94F1081816DB
S1130830ACF0C5E061E08C2F0E941202CF5FCC3097
S1130840C9F761E08CE00E940B0261E08DE00E9438
S11308500B0261E08EE00E940B02B9C020E030E0A0
S113086040E05FE3C501B4010E944E0A9B01AC0164
S1130870C701B6010E94F108181684F0C5E061E0D2
S11308808C2F0E941202CF5FCB30C9F761E08C2F0E
S11308900E940B02CF5FCF30C9F799C02AE939E92A
S11308A049E15FE3C501B4010E944E0A9B01AC011A
S11308B0C701B6010E94F108181684F0C5E061E092
S11308C08C2F0E941202CF5FCA30C9F761E08C2FCF
S11308D00E940B02CF5FCF30C9F779C023E333E323
S11308E043E35FE3C501B4010E944E0A9B01AC01DE
S11308F0C701B6010E94F108181684F0C5E061E052
S11309008C2F0E941202CF5FC930C9F761E08C2F8F
S11309100E940B02CF5FCF30C9F759C02DEC3CECDD
S11309204CE45FE3C501B4010E944E0A9B01AC0193
S1130930C701B6010E94F1081816ACF061E085E029
S11309400E94120261E086E00E94120261E087E0E8
S11309500E941202C8E061E08C2F0E940B02CF5F5C
S1130960CF30C9F734C026E636E646E65FE3C50174
S1130970B4010E944E0A9B01AC01C701B6010E945A
S1130980F1081816F4F061E085E00E94120261E0BB
S113099086E00E941202C7E061E08C2F0E940B02E5
S11309A0CF5FCF30C9F713C061E08C2F0E940B02D8
S11309B0CF5FCF30C9F70BC061E08EE00E940B021D
S11309C006C061E085E00E941202C6E0EDCFCF913F
S11309D0FF90EF90DF90CF90BF90AF909F908F905B
S11309E008950E9419020E9485030895CF93C0E0E0
S11309F060E08C2F0E940B0261E08C2F0E940B029E
S1130A00CF5FC031A9F7CF910895CF92DF92EF92D3
S1130A10FF920F931F93CF93009121011091220114
S1130A20C091F400B80180E090E00E9497096B0146
S1130A307C016C2F70E080E090E00E94990920E036
S1130A4030E040E05FE30E944E0A9B01AC01C70125
S1130A50B6010E94F10818166CF0C0E060E08C2F1B
S1130A600E94120261E08C2F0E941202CF5FC530F7
S1130A70A9F70DC08C2F90E00817190740F4C0E0C7
S1130A8061E08C2F0E941202CF5FC530C9F7CF916D
S1130A901F910F91FF90EF90DF90CF900895CF9228
S1130AA0DF92EF92FF920F931F93CF930091230154
S1130AB010912401C091F400B80180E090E00E94FC
S1130AC097096B017C016C2F70E080E090E00E943C
S1130AD0990920E030E040E05FE30E944E0A9B0168
S1130AE0AC01C701B6010E94F10818166CF0CAE007
S1130AF060E08C2F0E94120261E08C2F0E9412028F
S1130B00CF5FC031A9F70DC08C2F90E008171907EB
S1130B1040F4CAE061E08C2F0E941202CF5FC03122
S1130B20C9F7CF911F910F91FF90EF90DF90CF9075
S1130B300895CF92DF92EF92FF920F931F93CF937A
S1130B400091210110912201C091F4006C2F70E0FA
S1130B5080E090E00E94990920E030E040E05FE30B
S1130B600E944E0A6B017C01B80180E090E00E9473
S1130B709709A70196010E94F1081816ECF06091FC
S1130B8023017091240180E090E00E9497099B0169
S1130B90AC01C701B6010E94490A88236CF0C5E084
S1130BA060E08C2F0E94120261E08C2F0E941202DE
S1130BB0CF5FCA30A9F714C08C2F90E0081719072B
S1130BC078F420912301309124012817390740F447
S1130BD0C5E061E08C2F0E941202CF5FCA30C9F7D2
S1130BE0CF911F910F91FF90EF90DF90CF900895D8
S1130BF00E94F6040E9405050E944F050E94990573
S1130C0008950E94C2004AE061E171E080912101EF
S1130C10909122010E94FD0A4AE067EF70E0809102
S1130C202301909124010E94FD0A60E080E00E946B
S1130C30B80081E191E00E94DB0061E080E00E9465
S1130C40B80087EF90E00E94DB0008950E94C20084
S1130C5080910B01811103C00E94F8050895813031
S1130C6019F40E94F10408950E94010608954F9218
S1130C705F926F927F928F929F92AF92BF92CF9228
S1130C80DF92EF92FF921F93CF93DF9300D000D0B7
S1130C9000D0CDB7DEB76091F400862F90E02091AC
S1130CA02101309122013A8329832817390750F012
S1130CB020912301309124012817390718F081E08D
S1130CC085BBCFC070E080E090E00E9499092DECD4
S1130CD03CEC4CE45EE30E944E0A6B017C012981EA
S1130CE03A81B90180E090E00E949709A70196013A
S1130CF00E94F108181684F4609123017091240174
S1130D0080E090E00E9497099B01AC01C701B60105
S1130D100E94490A882314F015BAA3C01E821D82BA
S1130D2011E03D8130FD02C015BA01C015BB6091D0
S1130D3021017091220180E090E00E9497094B010B
S1130D405C016091F40070E080E090E00E949909F9
S1130D502B013C012DEC3CEC4CEC5EE30E944E0A72
S1130D606B017C019B01AC01C501B4010E94F10837
S1130D701816A4F4609123017091240180E090E09E
S1130D800E94970969837A838B839C839B01AC01BE
S1130D90C701B6010E94490A88233CF08FEF9BEFFC
S1130DA00197F1F700C0000052C02AE939E949E18E
S1130DB05FE3C301B2010E944E0A6B017C019B01F7
S1130DC0AC01C501B4010E94F108181654F4A7013E
S1130DD0960169817A818B819C810E94F1081816A1
S1130DE054F092E323E931E0915020403040E1F7A0
S1130DF000C000C02CC02DEC3CEC4CE45FE3C3010C
S1130E00B2010E944E0A6B017C019B01AC01C50139
S1130E10B4010E94F108181654F4A70196016981DF
S1130E207A818B819C810E94F10818164CF08CEC1D
S1130E309CE522E0815090402040E1F700C007C0CB
S1130E4036E686E293E0315080409040E1F72D8110
S1130E503E812F5F3F4F3E832D832A30310509F0B9
S1130E6060CF26960FB6F894DEBF0FBECDBFDF91DC
S1130E70CF911F91FF90EF90DF90CF90BF90AF90F4
S1130E809F908F907F906F905F904F900895CF9335
S1130E90DF93CDB7DEB760970FB6F894DEBF0FBE11
S1130EA0CDBF0E94DB010E94C2008091F400893111
S1130EB078F48F5F8093F4004AE0BE016F5F7F4F48
S1130EC090E00E94FD0A85E890E00E94DB0004C0E7
S1130ED085E990E00E94DB0061E087E00E94B800B1
S1130EE0CE0101960E94DB002FEF8FE39BE021509F
S1130EF080409040E1F700C0000060960FB6F8947F
S1130F00DEBF0FBECDBFDF91CF910895CF93DF93A6
S1130F10CDB7DEB760970FB6F894DEBF0FBECDBF76
S1130F200E94DB010E94C2008091F400863078F0B8
S1130F3081508093F4004AE0BE016F5F7F4F90E0E0
S1130F400E94FD0A86EA90E00E94DB0004C086EB62
S1130F5090E00E94DB0061E087E00E94B800CE01CF
S1130F6001960E94DB002FEF8FE39BE0215080402D
S1130F709040E1F700C0000060960FB6F894DEBF21
S1130F800FBECDBFDF91CF9108950E94C20060E0F3
S1130F9081E00E94B80087EC90E00E94DB00809121
S1130FA00B0190E0019663E070E00E94BB0A80931D
S1130FB00B012FEF8FE39BE0215080409040E1F73D
S1130FC000C0000008950E94C20080910C018111AC
S1130FD009C060E082E00E94B80087ED90E00E94C2
S1130FE0DB0008C060E081E00E94B80084EE90E07D
S1130FF00E94DB0080910C0190E001968170907852
S1131000992324F401978E6F9F6F019680930C01AE
S11310102FEF8FE39BE0215080409040E1F700C028
S113102000000895B09903C00E9447070895B1993C
S113103003C00E9486070895B29903C00E94C507A1
S11310400895B39B0E94E30708959BB3982B9BBB21
S113105098E19A95F1F700C09BB3809589238BBBE7
S1131060089581E48EBD80E288BF08951DBC1CBC38
S113107081E08EBD80E288BF1092070110920801C2
S11310801092090110920A01089508B605FEFDCFD9
S113109008958091F50090E00196817090789923ED
S11310A024F401978E6F9F6F01968093F500089545
S11310B08091F500811129C0E6B5F7B520910701AB
S11310C0309108014091090150910A01AFEFBFEF3F
S11310D00E94CF0A6E0F7F1F811D911D60930D0129
S11310E070930E0180930F01909310010E94970951
S11310F02DEC3CEE47ED53E40E94F6080E9468098B
S113110070932201609321010895609125017091EB
S1131110260180912701909128010E9497092DECC6
S11311203CEE47ED53E40E94F6080E946809709370
S113113024016093230108950E9412088091F50010
S1131140811115C00E9449080E94C90182E00E94D1
S1131150250829E989E591E0215080409040E1F794
S113116000008091F50090E00E94580816C00E948B
S113117049080E94C9010E94CE0181E00E9425080D
S11311800E9431080E9445080E9436080E944508C2
S11311908091F50090E00E9458080E94DB010E94B3
S11311A0260680910C01811102C00E9437062FEFA0
S11311B08FE392E0215080409040E1F700C00000AE
S11311C0BBCF0E9478010E94A9010E94B9010E942C
S11311D0AE010E94B5010E94BE010E94E4010E947A
S11311E09C080E94D40908F481E008950E940A0929
S11311F00C940F0A0E94080A58F00E94010A40F059
S113120029F45F3F29F00C94F80951110C94430A16
S11312100C94FE090E94200A68F39923B1F3552324
S113122091F3951B550BBB27AA27621773078407F5
S113123038F09F5F5F4F220F331F441FAA1FA9F38B
S113124035D00E2E3AF0E0E832D091505040E69579
S1131250001CCAF72BD0FE2F29D0660F771F881FDA
S1131260BB1F261737074807AB07B0E809F0BB0BCD
S1131270802DBF01FF2793585F4F3AF09E3F5105E1
S113128078F00C94F8090C94430A5F3FE4F3983E19
S1131290D4F3869577956795B795F7959F5FC9F7CA
S11312A0880F911D9695879597F90895E1E0660F4B
S11312B0771F881FBB1F621773078407BA0720F0C4
S11312C0621B730B840BBA0BEE1F88F7E09508952D
S11312D00E94280A88F09F5798F0B92F9927B75190
S11312E0B0F0E1F0660F771F881F991F1AF0BA95C6
S11312F0C9F714C0B13091F00E94420AB1E00895D8
S11313000C94420A672F782F8827B85F39F0B93FC9
S1131310CCF3869577956795B395D9F73EF4909578
S11313208095709561957F4F8F4F9F4F0895E894F6
S113133009C097FB3EF490958095709561957F4F19
S11313408F4F9F4F9923A9F0F92F96E9BB279395C7
S1131350F695879577956795B795F111F8CFFAF4D7
S1131360BB0F11F460FF1BC06F5F7F4F8F4F9F4F08
S113137016C0882311F096E911C0772321F09EE866
S1131380872F762F05C0662371F096E8862F70E0CC
S113139060E02AF09A95660F771F881FDAF7880FA6
S11313A09695879597F90895990F0008550FAA0BFC
S11313B0E0E8FEEF16161706E807F907C0F0121664
S11313C01306E407F50798F0621B730B840B950B67
S11313D039F40A2661F0232B242B252B21F40895BC
S11313E00A2609F4A140A6958FEF811D811D089559
S11313F097F99F6780E870E060E008959FEF80ECC4
S1131400089500240A941616170618060906089566
S113141000240A9412161306140605060895092ECC
S11314200394000C11F4882352F0BB0F40F4BF2B3B
S113143011F460FF04C06F5F7F4F8F4F9F4F08957B
S113144057FD9058440F551F59F05F3F71F0479571
S1131450880F97FB991F61F09F3F79F08795089556
S1131460121613061406551FF2CF4695F1DF08C075
S1131470161617061806991FF1CF86957105610592
S113148008940895E894BB2766277727CB0197F93A
S113149008950E94D40908F48FEF08950E94610A08
S11314A00C940F0A0E94010A38F00E94080A20F0E6
S11314B0952311F00C94F8090C94FE0911240C9452
S11314C0430A0E94200A70F3959FC1F3950F50E0E0
S11314D0551F629FF001729FBB27F00DB11D639FE2
S11314E0AA27F00DB11DAA1F649F6627B00DA11D88
S11314F0661F829F2227B00DA11D621F739FB00D2E
S1131500A11D621F839FA00D611D221F749F33279D
S1131510A00D611D231F849F600D211D822F762F36
S11315206A2F11249F5750409AF0F1F088234AF013
S1131530EE0FFF1FBB1F661F771F881F915050407F
S1131540A9F79E3F510580F00C94F8090C94430AC6
S11315505F3FE4F3983ED4F3869577956795B79506
S1131560F795E7959F5FC1F7FE2B880F911D969520
S1131570879597F9089597FB072E16F4009407D0E2
S113158077FD09D00E94DA0A07FC05D03EF4909555
S113159081959F4F0895709561957F4F08950E949E
S11315A0EE0AA59F900DB49F900DA49F800D911DF0
S11315B011240895AA1BBB1B51E107C0AA1FBB1F1E
S11315C0A617B70710F0A61BB70B881F991F5A95CB
S11315D0A9F780959095BC01CD010895A29FB00113
S11315E0B39FC001A39F700D811D1124911DB29F53
S11315F0700D811D1124911D0895BB274A3031F4CB
S1131600992322F4BDE2909581959F4F0C94090B88
S1131610BB27FB015527AA27880F991FAA1FA417C8
S113162010F0A41B83955051B9F7A05DAA3308F0BC
S1131630A95DA193009779F7B111B1931192CB01F0
S11316400C94220BDC01FC01672F71917723E1F7E5
S1131650329704C07C916D9370836291AE17BF077B
S10B1660C8F30895F894FFCFCC
S11316685552532070726F6A656B74005061726BC7
S1131678696E672073656E7A6F72004F0023004CA1
S11316883A00523A0052616E676520696E6372656A
S113169861736564004D6178696D756D2064697363
S11316A874616E63650052616E6765206465637278
S11316B86561736564004D696E696D756D20646953
S11316C87374616E636500446973706C6179206337
S11316D868616E6765640048616E646272616B6517
S11316E82075700048616E646272616B6520646F76
S10716F8776E000005
S9030000FC
