:100000000C942A000C9413010C943C000C943C00BA
:100010000C943C000C943C000C943C000C943C0070
:100020000C94FC000C943C000C943C000C943C00A0
:100030000C943C000C943C000C943C000C943C0050
:100040000C943C000C943C000C943C000C943C0040
:100050000C943C0011241FBECFE5D4E0DEBFCDBF21
:1000600020E0A0E6B0E001C01D92A836B207E1F79B
:100070000E943E010C948E030C940000C79A00C0AD
:10008000C7980895CF93DF93D82F662311F0C59AB0
:1000900001C0C598C69887B38F6087BBC8B3C07FBF
:1000A0008D2F82958F708C2B88BB0E943E00DF7055
:1000B000DC2BD8BB0E943E00CF60C8BBDF91CF9144
:1000C0000895882311F0C59A01C0C598C69A87B3D0
:1000D000807F87BBC79A00C096B3C79800C0C79AF5
:1000E00000C026B32F70892F8295807FC798822BFE
:1000F000089580E00E9461008823DCF383E090E0B3
:100100000197F1F780E00E9461000895CF93C82F16
:100110000E94790060E08C2F0E944200CF910895E8
:10012000611104C080580E948600089580540E9486
:100130008600089581E00E9486000895CF93C82F1D
:100140000E947900CA3049F4803410F080E001C088
:1001500080E480580E94860004C061E08C2F0E94D9
:100160004200CF910895CF93DF93EC012196FC01DB
:100170008081882329F00E949E0089918111FBCF04
:10018000DF91CF9108951F93CF93DF93182F87B3FB
:100190008F6087BBBD9ABE9ABF9A80E393E70197B1
:1001A000F1F7C19AC09A0E943E0080EF93E2019756
:1001B000F1F70E943E00C5E7D0E0CE010197F1F7CC
:1001C0000E943E00CE010197F1F7C0980E943E00C8
:1001D0002197F1F788E20E94860088E00E9486005D
:1001E0000E949A0086E00E948600812F0E9486006D
:1001F000DF91CF911F9108951F920F920FB60F922A
:1002000011248F939F9380916600909167000196CF
:1002100090936700809366009F918F910F900FBE1F
:100220000F901F9018951F920F920FB60F921124E6
:100230008F939F938091620090916300892B51F47A
:100240008EB581608EBD81E090E0909363008093D5
:1002500062000DC01EBC8CB59DB590936500809367
:1002600064001DBC1CBC10926300109262009F9140
:100270008F910F900FBE0F901F901895CF93DF9323
:10028000CDB7DEB7A0970FB6F894DEBF0FBECDBFD7
:100290001FEF14BB15BB80E181BB8CE00E94C30043
:1002A00083E08ABB1BBA12BB84E089BF1FBC8BB73B
:1002B00080648BBF85B7816085BF7894212C312CF9
:1002C00021016894662465F86894772472F811E037
:1002D0000AE06894CC24C6F8D12C80916100811189
:1002E00065C0809160008B3010F0109361008F5FCB
:1002F000809360001FBCD89A28E12A95F1F700C0CE
:10030000D8981DBC1CBC81E48EBD68BE78BE08B602
:1003100005FEFDCF1DBC1CBC1EBD68BE78BE109284
:1003200067001092660008B605FEFDCF66B577B58A
:1003300080E090E00E94A3022DEC3CEE47ED53E4F8
:100340000E9402020E9474024B015C017B0191E257
:100350009FBD0EBDD9BCC8BC0E949A00402FBE01F3
:100360006F5F7F4FC4010E945903402FBE016F5E33
:100370007F4FC1010E94590360E080E00E9490001D
:10038000CE0101960E94B300612F80E00E94900090
:10039000CE0141960E94B3002FEF8FE794E02150E9
:1003A00080409040E1F700C0000024C080916000D0
:1003B0008B3000F1109261001FBC1EBC1DBC1CBC28
:1003C000D99A28E12A95F1F700C0D99889E999E5E9
:1003D00021E0815090402040E1F7000080916400CE
:1003E000909165006EEF71E00E9431031B01770F61
:1003F0004408550880E1E816F10410F015BB6DCFF4
:1004000015BA6BCF0E9416020C94F7020E94F002FC
:1004100058F00E94E90240F029F45F3F29F00C9463
:10042000E00251110C942B030C94E6020E94080385
:1004300068F39923B1F3552391F3951B550BBB2713
:10044000AA2762177307840738F09F5F5F4F220F58
:10045000331F441FAA1FA9F335D00E2E3AF0E0E84F
:1004600032D091505040E695001CCAF72BD0FE2F99
:1004700029D0660F771F881FBB1F2617370748072D
:10048000AB07B0E809F0BB0B802DBF01FF279358E5
:100490005F4F3AF09E3F510578F00C94E0020C94C7
:1004A0002B035F3FE4F3983ED4F3869577956795E9
:1004B000B795F7959F5FC9F7880F911D969587951A
:1004C00097F90895E1E0660F771F881FBB1F621739
:1004D00073078407BA0720F0621B730B840BBA0BF7
:1004E000EE1F88F7E09508950E94100388F09F574B
:1004F00098F0B92F9927B751B0F0E1F0660F771F48
:10050000881F991F1AF0BA95C9F714C0B13091F03D
:100510000E942A03B1E008950C942A03672F782FD4
:100520008827B85F39F0B93FCCF386957795679502
:10053000B395D9F73EF490958095709561957F4F6E
:100540008F4F9F4F0895E89409C097FB3EF4909514
:100550008095709561957F4F8F4F9F4F9923A9F09C
:10056000F92F96E9BB279395F6958795779567952B
:10057000B795F111F8CFFAF4BB0F11F460FF1BC06F
:100580006F5F7F4F8F4F9F4F16C0882311F096E902
:1005900011C0772321F09EE8872F762F05C06623B0
:1005A00071F096E8862F70E060E02AF09A95660F69
:1005B000771F881FDAF7880F9695879597F9089522
:1005C00097F99F6780E870E060E008959FEF80EC06
:1005D000089500240A9416161706180609060895A9
:1005E00000240A9412161306140605060895092E0F
:1005F0000394000C11F4882352F0BB0F40F4BF2B7E
:1006000011F460FF04C06F5F7F4F8F4F9F4F0895BD
:1006100057FD9058440F551F59F05F3F71F04795B3
:10062000880F97FB991F61F09F3F79F08795089598
:10063000121613061406551FF2CF4695F1DF08C0B7
:10064000161617061806991FF1CF869571056105D4
:1006500008940895E894BB2766277727CB0197F97C
:10066000089597FB072E16F4009407D077FD09D064
:100670000E94450307FC05D03EF4909581959F4F5D
:100680000895709561957F4F0895AA1BBB1B51E19A
:1006900007C0AA1FBB1FA617B70710F0A61BB70BF2
:1006A000881F991F5A95A9F780959095BC01CD0197
:1006B0000895BB274A3031F4992322F4BDE2909586
:1006C00081959F4F0C946503BB27FB015527AA27F3
:1006D000880F991FAA1FA41710F0A41B83955051CF
:1006E000B9F7A05DAA3308F0A95DA193009779F747
:1006F000B111B1931192CB010C947E03DC01FC018A
:10070000672F71917723E1F7329704C07C916D9345
:1007100070836291AE17BF07C8F30895F894FFCFB6
:00000001FF
