:100000000C942A000C94FC000C943C000C943C00D2
:100010000C943C000C943C000C943C000C943C0070
:100020000C942A010C943C000C943C000C943C0071
:100030000C943C000C943C000C943C000C943C0050
:100040000C943C000C943C000C943C000C943C0040
:100050000C943C0011241FBECFE5D4E0DEBFCDBF21
:1000600020E0A0E6B0E001C01D92A339B207E1F79D
:100070000E94A7020C9431040C940000C79A00C09F
:10008000C7980895CF93DF93D82F662311F0C59AB0
:1000900001C0C598C69887B38F6087BBC8B3C07FBF
:1000A0008D2F82958F708C2B88BB0E943E00DF7055
:1000B000DC2BD8BB0E943E00CF60C8BBDF91CF9144
:1000C0000895882311F0C59A01C0C598C69A87B3D0
:1000D000807F87BBC79A00C096B3C79800C0C79AF5
:1000E00000C026B32F70892F8295807FC798822BFE
:1000F000089580E00E9461008823DCF383E090E0B3
:100100000197F1F780E00E9461000895CF93C82F16
:100110000E94790060E08C2F0E944200CF910895E8
:10012000611104C080580E948600089580540E9486
:100130008600089581E00E9486000895CF93C82F1D
:100140000E947900CA3049F4803410F080E001C088
:1001500080E480580E94860004C061E08C2F0E94D9
:100160004200CF910895CF93DF93EC012196FC01DB
:100170008081882329F00E949E0089918111FBCF04
:10018000DF91CF9108951F93CF93DF93182F87B3FB
:100190008F6087BBBD9ABE9ABF9A80E393E70197B1
:1001A000F1F7C19AC09A0E943E0080EF93E2019756
:1001B000F1F70E943E00C5E7D0E0CE010197F1F7CC
:1001C0000E943E00CE010197F1F7C0980E943E00C8
:1001D0002197F1F788E20E94860088E00E9486005D
:1001E0000E949A0086E00E948600812F0E9486006D
:1001F000DF91CF911F9108951F920F920FB60F922A
:1002000011248F939F93AF93BF93809166008111C8
:1002100007C081E0809366008EB581608EBD11C0FD
:10022000109266001EBC8CB59DB5A0E0B0E0809336
:10023000600090936100A0936200B09363001DBCC6
:100240001CBCBF91AF919F918F910F900FBE0F90EB
:100250001F9018951F920F920FB60F9211248F9333
:100260009F93AF93BF938091770090917800A09176
:100270007900B0917A000196A11DB11D809377009D
:1002800090937800A0937900B0937A00BF91AF91DA
:100290009F918F910F900FBE0F901F901895109205
:1002A0007700109278001092790010927A001092E4
:1002B0008F00109290001092910010929200109274
:1002C0006000109261001092620010926300109220
:1002D0007C0010927B0010928E0010928D00109284
:1002E00066001092650080E18093640010927D00AA
:1002F0001092670008958FEF84BB85BB089580E15D
:1003000081BB8FEF82BB8CE00E94C300089583E025
:100310008ABB1BBA089584E089BF1FBC8BB7806479
:100320008BBF85B7816085BF789408951FBC1EBCC4
:100330001DBC1CBC089510928F001092900010926A
:1003400091001092920010927C0010927B00089510
:1003500081E28FBD8AE08EBD80E490E099BD88BDCA
:1003600008950E949A004AE06DE770E080917B005A
:1003700090917C000E94FC034AE067E670E0809167
:100380008D0090918E000E94FC0360E080E00E944E
:1003900090008DE790E00E94B30061E080E00E9451
:1003A000900087E690E00E94B30008958091640079
:1003B00090E020917B0030917C002817390750F0A5
:1003C00020918D0030918E002817390718F081E0B8
:1003D00085BB089515BA08954BB321E030E0B9010B
:1003E00002C0660F771F8A95E2F7CB01462B4BBB05
:1003F00078E17A95F1F700C09BB3809589238BBB98
:10040000089581E48EBD80E288BF08951DBC1CBCA8
:1004100081E08EBD80E288BF109277001092780054
:100420001092790010927A00089508B605FEFDCF6B
:10043000089580916500811104C081E0809365007A
:10044000089510926500089580916500813049F506
:10045000E6B5F7B5209177003091780040917900AA
:1004600050917A00AFEFBFEF0E94E2036E0F7F1F43
:10047000811D911D60938F00709390008093910077
:10048000909392000E9454032DEC3CEE47ED53E410
:100490000E94B3020E94250370937C0060937B004E
:1004A0000895609160007091610080916200909168
:1004B00063000E9454032DEC3CEE47ED53E40E9490
:1004C000B3020E94250370938E0060938D000895FF
:1004D00080916500811124C00E9419020E9496013A
:1004E0000E949B0180E00E94EC010E9401020E9498
:1004F00015020E9406020E9415028091650090E09C
:100500000E9424020E94A8010E94B1012FEF8FE3F4
:100510009BE0215080409040E1F700C0000014C0F3
:100520000E9419020E94960181E00E94EC0129E9D3
:1005300089E591E0215080409040E1F700008091F2
:10054000650090E00E9424020E94D601C1CF0E9463
:100550004F010E947B010E947F010E9487010E943F
:100560008B010E9468020E94C7020C94A8030E949B
:10057000A10358F00E949A0340F029F45F3F29F04C
:100580000C94910351110C94DC030C9497030E947A
:10059000B90368F39923B1F3552391F3951B550BD8
:1005A000BB27AA2762177307840738F09F5F5F4F46
:1005B000220F331F441FAA1FA9F335D00E2E3AF085
:1005C000E0E832D091505040E695001CCAF72BD09D
:1005D000FE2F29D0660F771F881FBB1F26173707EE
:1005E0004807AB07B0E809F0BB0B802DBF01FF2720
:1005F00093585F4F3AF09E3F510578F00C94910369
:100600000C94DC035F3FE4F3983ED4F38695779532
:100610006795B795F7959F5FC9F7880F911D9695D8
:10062000879597F90895E1E0660F771F881FBB1F34
:10063000621773078407BA0720F0621B730B840BE1
:10064000BA0BEE1F88F7E09508950E94C10388F069
:100650009F5798F0B92F9927B751B0F0E1F0660F86
:10066000771F881F991F1AF0BA95C9F714C0B130C7
:1006700091F00E94DB03B1E008950C94DB03672F37
:10068000782F8827B85F39F0B93FCCF386957795F6
:100690006795B395D9F73EF49095809570956195DF
:1006A0007F4F8F4F9F4F0895E89409C097FB3EF40A
:1006B00090958095709561957F4F8F4F9F4F9923AF
:1006C000A9F0F92F96E9BB279395F695879577952D
:1006D0006795B795F111F8CFFAF4BB0F11F460FFED
:1006E0001BC06F5F7F4F8F4F9F4F16C0882311F045
:1006F00096E911C0772321F09EE8872F762F05C059
:10070000662371F096E8862F70E060E02AF09A95F3
:10071000660F771F881FDAF7880F9695879597F9E8
:10072000089597F99F6780E870E060E008959FEF73
:1007300080EC089500240A94161617061806090678
:10074000089500240A941216130614060506089547
:10075000092E0394000C11F4882352F0BB0F40F4CF
:10076000BF2B11F460FF04C06F5F7F4F8F4F9F4F0F
:10077000089557FD9058440F551F59F05F3F71F091
:100780004795880F97FB991F61F09F3F79F08795F8
:100790000895121613061406551FF2CF4695F1DF81
:1007A00008C0161617061806991FF1CF8695710511
:1007B000610508940895E894BB2766277727CB0145
:1007C00097F908950E94ED03A59F900DB49F900D99
:1007D000A49F800D911D11240895A29FB001B39F85
:1007E000C001A39F700D811D1124911DB29F700D3A
:1007F000811D1124911D0895BB274A3031F499239E
:1008000022F4BDE2909581959F4F0C940804BB277C
:10081000FB015527AA27880F991FAA1FA41710F0BC
:10082000A41B83955051B9F7A05DAA3308F0A95DC8
:10083000A193009779F7B111B1931192CB010C9468
:100840002104DC01FC01672F71917723E1F73297D6
:1008500004C07C916D9370836291AE17BF07C8F39B
:060860000895F894FFCF9B
:00000001FF
