S01300007572735F70726F6A656B742E7372656359
S11300000C94A7000C949E010C94B9000C94B900B4
S11300100C94B9000C94B9000C94B9000C94B90078
S11300200C94B9000C94B9000C94B9000C94B90068
S11300300C94B9000C94B9000C94B9000C94B90058
S11300400C94B9000C94B9000C94B9000C94790187
S11300500C94B90000407A10F35A00A0724E1809AB
S11300600010A5D4E80000E87648170000E40B541B
S1130070020000CA9A3B000000E1F50500008096EA
S11300809800000040420F000000A086010000001C
S1130090102700000000E8030000000064000000D6
S11300A000000A00000000000100000000002C769F
S11300B0D888DC674F0823DFC1DFAE59E1B1B796BA
S11300C0E5E3E453C63AE651997696E8E6C2842617
S11300D0EB898C9B62ED407C6FFCEFBC9C9F40F2F3
S11300E0BAA56FA5F490055A2AF75C936B6CF9676F
S11300F06DC11BFCE0E40D47FEF520E6B500D0ED34
S1130100902E0300943577050080841E080000209B
S11301104E0A000000C80C333333330F986E128339
S11301201141EF8D2114893BE65516CFFEE6DB180D
S1130130D1844B381BF77C1D901DA4BBE4242032D2
S113014084725E228100C9F124ECA1E53D271124CB
S11301501FBECFE5D4E0DEBFCDBF20E0A0E6B0E017
S113016001C01D92A538B207E1F70E9428020C9441
S11301702B050C940000C79A00C0C7980895CF932C
S1130180DF93D82F662311F0C59A01C0C598C6988D
S113019087B38F6087BBC8B3C07F8D2F82958F7064
S11301A08C2B88BB0E94BB00DF70DC2BD8BB0E9469
S11301B0BB00CF60C8BBDF91CF910895882311F0B5
S11301C0C59A01C0C598C69A87B3807F87BBC79A72
S11301D000C096B3C79800C0C79A00C026B32F705A
S11301E0892F8295807FC798822B089580E00E9492
S11301F0DE008823DCF383E090E00197F1F780E0F0
S11302000E94DE000895CF93C82F0E94F60060E09C
S11302108C2F0E94BF00CF910895611104C08058B3
S11302200E940301089580540E940301089581E00F
S11302300E9403010895CF93C82F0E94F600CA308C
S113024049F4803410F080E001C080E480580E94BA
S1130250030104C061E08C2F0E94BF00CF91089578
S1130260CF93DF93EC012196FC018081882329F050
S11302700E941B0189918111FBCFDF91CF910895D9
S11302801F93CF93DF93182F87B38F6087BBBD9ADB
S1130290BE9ABF9A80E393E70197F1F7C19AC09A97
S11302A00E94BB0080EF93E20197F1F70E94BB002C
S11302B0C5E7D0E0CE010197F1F70E94BB00CE0163
S11302C00197F1F7C0980E94BB002197F1F788E2EB
S11302D00E94030188E00E9403010E94170186E046
S11302E00E940301812F0E940301DF91CF911F918E
S11302F008951F920F920FB60F9211248F939F931C
S1130300AF93BF938091640090916500A0916600C3
S1130310B09167000196A11DB11D80936400909374
S11303206500A0936600B0936700BF91AF919F9161
S11303308F910F900FBE0F901F9018951F920F92E0
S11303400FB60F9211240F931F932F933F934F9344
S11303505F936F937F938F939F93AF93BF93EF9329
S1130360FF938091640090916500A0916600B09124
S11303706700AC01BD01440F551F661F771F840F32
S1130380951FA61FB71FB695A79597958795809338
S1130390600090936100A0936200B0936300109298
S11303A064001092650010926600109267000E942B
S11303B0170180916800813081F460916000709130
S11303C0610080916200909163000E94650209E6D9
S11303D010E022E044E00E94A202809168008111B2
S11303E010C06091600070916100809162009091F2
S11303F063000E94650207E710E022E044E00E94E7
S1130400A20260E080E00E940D0189E690E00E9473
S1130410300161E080E00E940D0187E790E00E94D6
S1130420300112BE83B7816083BFFF91EF91BF910A
S1130430AF919F918F917F916F915F914F913F9178
S11304402F911F910F910F900FBE0F901F90189531
S1130450CFEFC4BBC5BB80E181BB8CE00E944001EF
S1130460C2BB89E083BF84E28CBF81E28FBD8AE096
S11304708EBD80E490E099BD88BD82E089BF80E4B0
S11304808BBF81E085BF789422E091E08091680081
S1130490811109C09ABB1BBAD89A38E13A95F1F791
S11304A000C0D8980AC0109268002ABB1BBAD99A17
S11304B048E14A95F1F700C0D99886E636E741E06D
S11304C0815030404040E1F7E1CFE89409C097FB08
S11304D03EF490958095709561957F4F8F4F9F4F17
S11304E09923A9F0F92F96E9BB279395F69587955B
S11304F077956795B795F111F8CFFAF4BB0F11F41E
S113050060FF1BC06F5F7F4F8F4F9F4F16C08823C4
S113051011F096E911C0772321F09EE8872F762FFA
S113052005C0662371F096E8862F70E060E02AF03B
S11305309A95660F771F881FDAF7880F9695879527
S113054097F90895EF920F931F93CF93DF93E801E8
S113055047FD02C034E001C034E1042E000C550B09
S113056057FF03C0519541955109E32E022F242FC3
S1130570AE010E94C202CE01DF91CF911F910F9173
S1130580EF900895A9E0B0E0E8ECF2E00C94FA04EE
S11305906A01122FB02E2BE3201720F0FF24F394CE
S11305A0F00E02C02CE3F22E0F2D27E0AE014F5FB8
S11305B05F4F0E941C04BC014981842F89708130E3
S11305C031F0E1FC06C0E0FE06C090E205C09DE209
S11305D003C09BE201C090E05E2D507143FF3CC01C
S11305E0911102C083E001C084E0811718F4212F27
S11305F0281B01C020E051110BC0F601822F30E20C
S1130600882319F031938150FBCFC20ED11C20E016
S1130610992329F0D6019C93F60131966F01C60106
S11306200396E2FE0AC03EE4D6013C9341E41196EF
S11306304C93119712963C9306C03EE6F601308324
S113064041E641833283FC01322F40E2332309F433
S113065042C041933150FACF42FF44C0911102C0CD
S113066083E001C084E0811718F4212F281B01C006
S113067020E051110BC0F601822F30E2882319F0DB
S113068031938150FBCFC20ED11C20E0992329F075
S1130690D6019C93F60131966F01C6010396E2FEE2
S11306A00BC039E4D6013C933EE411963C93119778
S11306B036E412963C9307C039E6F60130833EE6F1
S11306C0318336E63283FC01322F40E2332319F0C2
S11306D041933150FBCFFC01E20FF11D10828EEFEC
S11306E09FEFA6C021E030E0911102C020E030E08D
S11306F0161617061CF4FB01319602C0E1E0F0E087
S11307002E0F3F1FBB2021F0EB2DF0E0319602C0ED
S1130710E0E0F0E02E0F3F1FE12FF0E02E173F073F
S11307201CF4121B212F01C020E08E2D887159F476
S1130730F601822F30E2882319F031938150FBCFE8
S1130740C20ED11C20E0992329F0D6019C93F60116
S113075031966F0151110BC0F601822F90E388236B
S113076019F091938150FBCFC20ED11C20E00F2DC4
S1130770060F9A81342F307144FF03C0913309F47A
S11307800150101624F4093018F008E001C001E00B
S1130790AB0177FF02C040E050E0FB01E41BF50B26
S11307A0A1E0B0E0AC0FBD1FEA0FFB1F8EE2A82E44
S11307B04B01801A91080B2D10E011950195110938
S11307C04F3FBFEF5B0721F4D601AC9211966D0148
S11307D0641775072CF08416950614F4818101C002
S11307E080E3415051093196D60111967D0140179D
S11307F0510724F0D6018C936701E2CF6417750783
S113080039F4963320F4953319F4311101C081E39E
S1130810F6018083F701822F90E2882319F09193E7
S11308208150FBCFF701E20FF11D108280E090E0D0
S11308302996ECE00C941605283008F027E03327BD
S1130840DA01990F311D87FD9160009661057105EC
S113085039F432602E5F3D9330E32A95E1F7089531
S11308609F3F30F080387105610509F03C5F3C5FC3
S11308703D93913008F08068911DDF93CF931F93CF
S11308800F93FF92EF92192F987F9695E92F9695E3
S11308909695E90FFF27E255FF4F99273327EE245A
S11308A0FF24A701E70105900894079428F4360F64
S11308B0E71EF81E491F511D660F771F881F991FD9
S11308C00694A1F70590079428F4E70EF81E491F33
S11308D0561FC11D770F881F991F661F0694A1F725
S11308E00590079428F4F80E491F561FC71FD11D01
S11308F0880F991F661F771F0694A1F70590079428
S113090020F4490F561FC71FD81F990F661F771F62
S1130910881F0694A9F784911095177041F0D69515
S1130920C79557954795F794E7941A95C1F7E4E569
S1130930F0E0689415901591359165919591059025
S11309407FE27395E118F10A430B560BC90BD009EA
S1130950C0F7E10CF11E431F561FC91FD01D7EF4C2
S1130960703311F48A95E6CFE894015030F0080F03
S11309700AF40027021708F4202F2395022F7A3354
S113098028F079E37D932A95E9F710C07D932A95A1
S113099089F6069497956795379517951794E118F6
S11309A0F10A430B560BC90BD00998F023957E919D
S11309B073957A3308F070E37C932013B8F77E9133
S11309C070617D9330F0839571E37D9370E32A9594
S11309D0E1F71124EF90FF900F911F91CF91DF91D8
S11309E0992787FD909508952F923F924F925F9299
S11309F06F927F928F929F92AF92BF92CF92DF922B
S1130A00EF92FF920F931F93CF93DF93CDB7DEB78F
S1130A10CA1BDB0B0FB6F894DEBF0FBECDBF099423
S1130A202A88398848885F846E847D848C849B847A
S1130A30AA84B984C884DF80EE80FD800C811B8188
S1130A40AA81B981CE0FD11D0FB6F894DEBF0FBEB7
S10D0A50CDBFED010895F894FFCF27
S9030000FC
