:100000000C942A000C942C010C9447000C9447008B
:100010000C9447000C9447000C9447000C94470044
:100020000C9407010C9447000C9447000C94470073
:100030000C9447000C9447000C9447000C94470024
:100040000C9447000C9447000C9447000C94470014
:100050000C94470011241FBECFE5D4E0DEBFCDBF16
:1000600010E0A0E6B0E0E0E2F7E002C005900D92FB
:10007000A236B107D9F720E0A2E6B0E001C01D9298
:10008000AC36B207E1F70E945A010C948E030C942F
:100090000000C79A00C0C7980895CF93DF93D82F68
:1000A000662311F0C59A01C0C598C69887B38F60C2
:1000B00087BBC8B3C07F8D2F82958F708C2B88BB78
:1000C0000E944900DF70DC2BD8BB0E944900CF6042
:1000D000C8BBDF91CF910895882311F0C59A01C064
:1000E000C598C69A87B3807F87BBC79A00C096B36E
:1000F000C79800C0C79A00C026B32F70892F829579
:10010000807FC798822B089580E00E946C0088232E
:10011000DCF383E090E00197F1F780E00E946C004F
:100120000895CF93C82F0E94840060E08C2F0E9416
:100130004D00CF910895611104C080580E94910034
:10014000089580540E949100089581E00E949100DA
:100150000895CF93C82F0E948400CA3049F4803498
:1001600010F080E001C080E480580E94910004C03B
:1001700061E08C2F0E944D00CF910895CF93DF93C3
:10018000EC012196FC018081882329F00E94A900BE
:1001900089918111FBCFDF91CF9108951F93CF9368
:1001A000DF93182F87B38F6087BBBD9ABE9ABF9A23
:1001B00080E393E70197F1F7C19AC09A0E94490042
:1001C00080EF93E20197F1F70E944900C5E7D0E084
:1001D000CE010197F1F70E944900CE010197F1F796
:1001E000C0980E9449002197F1F788E20E9491008F
:1001F00088E00E9491000E94A50086E00E94910084
:10020000812F0E949100DF91CF911F9108951F923D
:100210000F920FB60F9211248F939F93AF93BF93BA
:100220008091680090916900A0916A00B0916B0084
:100230000196A11DB11D8093680090936900A09361
:100240006A00B0936B00BF91AF919F918F910F9017
:100250000FBE0F901F9018951F920F920FB60F921E
:1002600011248F939F93AF93BF938091630081116B
:1002700007C08EB581608EBD81E08093630011C0A0
:100280001EBC8CB59DB5A0E0B0E080936400909357
:100290006500A0936600B09367001DBC1CBC109263
:1002A0006300BF91AF919F918F910F900FBE0F9000
:1002B0001F901895CF93DF93CDB7DEB7A0970FB6F9
:1002C000F894DEBF0FBECDBF8FEF84BB85BB90E13E
:1002D00091BB82BB8CE00E94CE0083E08ABB1BBA3C
:1002E00084E089BF1FBC8BB780648BBF85B78160FA
:1002F00085BF7894E12CF12CC12CD12C11E00F2E6C
:10030000F1E42F2EF02D6894882485F868949924C0
:1003100092F80F2EF1E23F2EF02D0AE06894AA2405
:10032000A6F8B12C80916200811160C01093620028
:100330001FBCD89A28E12A95F1F700C0D8981DBCB7
:100340001CBC2EBC88BE98BE08B605FEFDCF1DBCE9
:100350001CBC1EBD88BE98BE109268001092690039
:1003600010926A0010926B0008B605FEFDCF66B5CC
:1003700077B580E090E00E94CB022DEC3CEE47ED9B
:1003800053E40E942A020E949C022B013C016B0153
:100390003FBC0EBDB9BCA8BC0E94A500402FBE0149
:1003A0006F5F7F4FC2010E945903402FBE016F5EF5
:1003B0007F4FC7010E94590360E080E00E949B00CC
:1003C000CE0101960E94BE00612F80E00E949B003A
:1003D000CE0141960E94BE008FEF9FE32BE081503B
:1003E00090402040E1F700C0000027C0109262005A
:1003F0001FBC1EBC1DBC1CBCD99A88E18A95F1F7B4
:1004000000C0D99899E929E581E0915020408040C9
:10041000E1F70000609164007091650080916600D2
:10042000909167000E94CB022DEC3CEE47ED53E427
:100430000E942A020E949C027B018091600090E051
:10044000C816D90628F0E816F90610F015BB6ACFD1
:1004500015BA68CF0E943E020C941F030E94180335
:1004600058F00E94110340F029F45F3F29F00C94EA
:10047000080351110C9453030C940E030E94300393
:1004800068F39923B1F3552391F3951B550BBB27C3
:10049000AA2762177307840738F09F5F5F4F220F08
:1004A000331F441FAA1FA9F335D00E2E3AF0E0E8FF
:1004B00032D091505040E695001CCAF72BD0FE2F49
:1004C00029D0660F771F881FBB1F261737074807DD
:1004D000AB07B0E809F0BB0B802DBF01FF27935895
:1004E0005F4F3AF09E3F510578F00C9408030C944E
:1004F00053035F3FE4F3983ED4F386957795679571
:10050000B795F7959F5FC9F7880F911D96958795C9
:1005100097F90895E1E0660F771F881FBB1F6217E8
:1005200073078407BA0720F0621B730B840BBA0BA6
:10053000EE1F88F7E09508950E94380388F09F57D2
:1005400098F0B92F9927B751B0F0E1F0660F771FF7
:10055000881F991F1AF0BA95C9F714C0B13091F0ED
:100560000E945203B1E008950C945203672F782F34
:100570008827B85F39F0B93FCCF3869577956795B2
:10058000B395D9F73EF490958095709561957F4F1E
:100590008F4F9F4F0895E89409C097FB3EF49095C4
:1005A0008095709561957F4F8F4F9F4F9923A9F04C
:1005B000F92F96E9BB279395F695879577956795DB
:1005C000B795F111F8CFFAF4BB0F11F460FF1BC01F
:1005D0006F5F7F4F8F4F9F4F16C0882311F096E9B2
:1005E00011C0772321F09EE8872F762F05C0662360
:1005F00071F096E8862F70E060E02AF09A95660F19
:10060000771F881FDAF7880F9695879597F90895D1
:1006100097F99F6780E870E060E008959FEF80ECB5
:10062000089500240A941616170618060906089558
:1006300000240A9412161306140605060895092EBE
:100640000394000C11F4882352F0BB0F40F4BF2B2D
:1006500011F460FF04C06F5F7F4F8F4F9F4F08956D
:1006600057FD9058440F551F59F05F3F71F0479563
:10067000880F97FB991F61F09F3F79F08795089548
:10068000121613061406551FF2CF4695F1DF08C067
:10069000161617061806991FF1CF86957105610584
:1006A00008940895E894BB2766277727CB0197F92C
:1006B0000895BB274A3031F4992322F4BDE2909586
:1006C00081959F4F0C946503BB27FB015527AA27F3
:1006D000880F991FAA1FA41710F0A41B83955051CF
:1006E000B9F7A05DAA3308F0A95DA193009779F747
:1006F000B111B1931192CB010C947E03DC01FC018A
:10070000672F71917723E1F7329704C07C916D9345
:1007100070836291AE17BF07C8F30895F894FFCFB6
:020720001000C7
:00000001FF
