S01300007572735F70726F6A656B742E7372656359
S11300000C942A000C9407010C9447000C944700AC
S11300100C9447000C9447000C9447000C94470040
S11300200C9435010C9447000C9447000C94470041
S11300300C9447000C9447000C9447000C94470020
S11300400C9447000C9447000C9447000C94470010
S11300500C94470011241FBECFE5D4E0DEBFCDBF12
S113006010E0A0E6B0E0ECEDF8E002C005900D92DF
S1130070AC37B107D9F720E0ACE7B0E001C01D927E
S1130080A03BB207E1F70E94E0020C946C040C94CC
S11300900000C79A00C0C7980895CF93DF93D82F64
S11300A0662311F0C59A01C0C598C69887B38F60BE
S11300B087BBC8B3C07F8D2F82958F708C2B88BB74
S11300C00E944900DF70DC2BD8BB0E944900CF603E
S11300D0C8BBDF91CF910895882311F0C59A01C060
S11300E0C598C69A87B3807F87BBC79A00C096B36A
S11300F0C79800C0C79A00C026B32F70892F829575
S1130100807FC798822B089580E00E946C0088232A
S1130110DCF383E090E00197F1F780E00E946C004B
S11301200895CF93C82F0E94840060E08C2F0E9412
S11301304D00CF910895611104C080580E94910030
S1130140089580540E949100089581E00E949100D6
S11301500895CF93C82F0E948400CA3049F4803494
S113016010F080E001C080E480580E94910004C037
S113017061E08C2F0E944D00CF910895CF93DF93BF
S1130180EC012196FC018081882329F00E94A900BA
S113019089918111FBCFDF91CF9108951F93CF9364
S11301A0DF93182F87B38F6087BBBD9ABE9ABF9A1F
S11301B080E393E70197F1F7C19AC09A0E9449003E
S11301C080EF93E20197F1F70E944900C5E7D0E080
S11301D0CE010197F1F70E944900CE010197F1F792
S11301E0C0980E9449002197F1F788E20E9491008B
S11301F088E00E9491000E94A50086E00E94910080
S1130200812F0E949100DF91CF911F9108951F9239
S11302100F920FB60F9211248F939F93AF93BF93B6
S113022080918200811107C081E0809382008EB5A5
S113023081608EBD11C0109282008CB59DB5A0E086
S1130240B0E080937C0090937D00A0937E00B093F7
S11302507F001EBC1DBC1CBCBF91AF919F918F91B0
S11302600F900FBE0F901F9018951F920F920FB60C
S11302700F9211248F939F93AF93BF938091930018
S113028090919400A0919500B09196000196A11DC3
S1130290B11D8093930090939400A0939500B09324
S11302A09600BF91AF919F918F910F900FBE0F90C9
S11302B01F9018951092930010929400109295003C
S11302C0109296001092AC001092AD001092AE0005
S11302D01092AF0010927C0010927D0010927E006C
S11302E010927F0010929800109297001092AA002A
S11302F01092A90010928200109281008FE08093E6
S113030080001092AB00109299001092830008951F
S11303108FEF84BB85BB089580E181BB8FEF82BBE7
S11303208CE00E94CE00089583E08ABB1BBA089536
S113033084E089BF1FBC8BB780648BBF85B78160A5
S113034085BF789408951FBC1EBC1DBC1CBC0895B9
S11303501092AC001092AD001092AE001092AF005B
S11303601092980010929700089581E28FBD8AE060
S11303708EBD80E190E099BD88BD08950E94A500DE
S11303804AE069E970E080919700909198000E949A
S113039037044AE063E870E08091A9009091AA00D4
S11303A00E94370460E080E00E949B0089E990E0AD
S11303B00E94BE0061E080E00E949B0083E890E020
S11303C00E94BE0008950E94B5010E94A50060E04D
S11303D081E00E949B0080E690E00E94BE0061E004
S11303E082E00E949B008FE690E00E94BE002FEF07
S11303F08FEB91E2215080409040E1F700C0000073
S113040008958091AB008130A9F48091800090E040
S113041020919700309198002817390750F02091C7
S1130420A9003091AA002817390718F081E085BB8C
S1130430089515BA08954BB321E030E0B90102C024
S1130440660F771F8A95E2F7CB01462B4BBB78E109
S11304507A95F1F700C09BB3809589238BBB0895EF
S113046081E48EBD80E288BF08951DBC1CBC81E080
S11304708EBD80E288BF1092930010929400109277
S1130480950010929600089508B605FEFDCF0895D4
S113049080918100811104C081E0809381000895DE
S11304A01092810008958091AB00811103C081E016
S11304B08093AB00089580918100811129C0E6B535
S11304C0F7B520919300309194004091950050919C
S11304D09600AFEFBFEF0E941D046E0F7F1F811DBA
S11304E0911D6093AC007093AD008093AE00909327
S11304F0AF000E948F032DEC3CEE47ED53E40E94C5
S1130500EE020E9460037093980060939700089530
S113051060917C0070917D0080917E0090917F00BD
S11305200E948F032DEC3CEE47ED53E40E94EE0253
S11305300E9460037093AA006093A90008958091BB
S11305408100811115C00E9448020E94A30181E02C
S11305500E941B0229E989E591E0215080409040E6
S1130560E1F700008091810090E00E945B0225C0C9
S11305700E9448020E9453020E94A3010E94A80103
S113058080E00E941B020E9430020E9444020E94EA
S113059035020E9444028091810090E00E945B0237
S11305A00E94B5010E94BE012FEF8FE39BE0215012
S11305B080409040E1F700C000000E940102BFCFDC
S11305C00E945A010E9488010E948C010E94940199
S11305D00E9498010E94E3010E949F020E9402036C
S11305E00C94E3030E94DC0358F00E94D50340F00E
S11305F029F45F3F29F00C94CC0351110C94170497
S11306000C94D2030E94F40368F39923B1F35523A5
S113061091F3951B550BBB27AA2762177307840711
S113062038F09F5F5F4F220F331F441FAA1FA9F3A7
S113063035D00E2E3AF0E0E832D091505040E69595
S1130640001CCAF72BD0FE2F29D0660F771F881FF6
S1130650BB1F261737074807AB07B0E809F0BB0BE9
S1130660802DBF01FF2793585F4F3AF09E3F5105FD
S113067078F00C94CC030C9417045F3FE4F3983E99
S1130680D4F3869577956795B795F7959F5FC9F7E6
S1130690880F911D9695879597F90895E1E0660F67
S11306A0771F881FBB1F621773078407BA0720F0E0
S11306B0621B730B840BBA0BEE1F88F7E095089549
S11306C00E94FC0388F09F5798F0B92F9927B751DF
S11306D0B0F0E1F0660F771F881F991F1AF0BA95E2
S11306E0C9F714C0B13091F00E941604B1E0089526
S11306F00C941604672F782F8827B85F39F0B93F18
S1130700CCF3869577956795B395D9F73EF4909594
S11307108095709561957F4F8F4F9F4F0895E89412
S113072009C097FB3EF490958095709561957F4F35
S11307308F4F9F4F9923A9F0F92F96E9BB279395E3
S1130740F695879577956795B795F111F8CFFAF4F3
S1130750BB0F11F460FF1BC06F5F7F4F8F4F9F4F24
S113076016C0882311F096E911C0772321F09EE882
S1130770872F762F05C0662371F096E8862F70E0E8
S113078060E02AF09A95660F771F881FDAF7880FC2
S11307909695879597F9089597F99F6780E870E093
S11307A060E008959FEF80EC089500240A941616E3
S11307B0170618060906089500240A94121613064B
S11307C0140605060895092E0394000C11F48823D9
S11307D052F0BB0F40F4BF2B11F460FF04C06F5FF5
S11307E07F4F8F4F9F4F089557FD9058440F551FCB
S11307F059F05F3F71F04795880F97FB991F61F09F
S11308009F3F79F087950895121613061406551F15
S1130810F2CF4695F1DF08C0161617061806991F81
S1130820F1CF86957105610508940895E894BB2776
S113083066277727CB0197F908950E942804A59F7E
S1130840900DB49F900DA49F800D911D11240895C7
S1130850A29FB001B39FC001A39F700D811D1124FD
S1130860911DB29F700D811D1124911D0895BB2708
S11308704A3031F4992322F4BDE2909581959F4F3B
S11308800C944304BB27FB015527AA27880F991F03
S1130890AA1FA41710F0A41B83955051B9F7A05DAB
S11308A0AA3308F0A95DA193009779F7B111B19328
S11308B01192CB010C945C04DC01FC01672F719153
S11308C07723E1F7329704C07C916D937083629132
S10F08D0AE17BF07C8F30895F894FFCFDB
S11308DC5061726B696E672073656E7A6F72005526
S10F08EC52532070726F6A656B74000038
S9030000FC
