S01300007572735F70726F6A656B742E7372656359
S11300000C942A000C9425010C9447000C9447008E
S11300100C9447000C9447000C9447000C94470040
S11300200C9453010C9447000C9447000C94470023
S11300300C9447000C9447000C9447000C94470020
S11300400C9447000C9447000C9447000C94470010
S11300500C94470011241FBECFE5D4E0DEBFCDBF12
S113006010E0A0E6B0E0E4E1FAE002C005900D92F1
S1130070A03CB107D9F720E0A0ECB0E001C01D928C
S1130080A43FB207E1F70E947A030C9408050C948C
S11300900000C79A00C0C7980895CF93C82F66235D
S11300A011F0C59A01C0C598C698D49AD59AD69A23
S11300B0D79ADF98DE98DD98DC98CC230CF4DF9A8D
S11300C0C6FDDE9AC5FDDD9AC4FDDC9A0E94490096
S11300D0DF98DE98DD98DC98C3FDDF9AC2FDDE9AD6
S11300E0C1FDDD9AC0FDDC9A0E944900DC9ADD9ACC
S11300F0DE9ADF9ACF910895882311F0C59A01C042
S1130100C598C69AD498D598D698D798C79A00C057
S1130110CC9B02C080E101C080E0CD998062CE9981
S11301208064CF998068C79800C0C79A00C0CC99F2
S11301308160CD998260CE998460CF998860C79898
S1130140089580E00E947C008823DCF383E090E043
S11301500197F1F780E00E947C000895CF93C82FA7
S11301600E94A10060E08C2F0E944D00CF91089561
S1130170611104C080580E94AE00089580540E940A
S1130180AE00089581E00E94AE000895CF93C82F79
S11301900E94A100CA3049F4803410F080E001C00C
S11301A080E480580E94AE0004C061E08C2F0E945D
S11301B04D00CF910895CF93DF93EC012196FC017C
S11301C08081882329F00E94C60089918111FBCF88
S11301D0DF91CF9108951F93CF93DF93182FBD9A8A
S11301E0BE9ABF9AD49AD59AD69AD79A80E393E7BF
S11301F00197F1F7DD9ADC9A0E94490080EF93E2BF
S11302000197F1F70E944900C5E7D0E0CE010197BC
S1130210F1F70E944900CE010197F1F7DC980E94A2
S113022049002197F1F788E20E94AE0088E00E941D
S1130230AE000E94C20086E00E94AE00812F0E94A0
S1130240AE00DF91CF911F9108951F920F920FB6C8
S11302500F9211248F939F93AF93BF938091C60005
S1130260811107C081E08093C6008EB581608EBD88
S113027011C01092C6008CB59DB5A0E0B0E080938B
S1130280C0009093C100A093C200B093C3001EBCF1
S11302901DBC1CBCBF91AF919F918F910F900FBE5D
S11302A00F901F9018951F920F920FB60F92112462
S11302B08F939F93AF93BF938091D7009091D80071
S11302C0A091D900B091DA000196A11DB11D8093CF
S11302D0D7009093D800A093D900B093DA00BF91CF
S11302E0AF919F918F910F900FBE0F901F90189513
S11302F01092D7001092D8001092D9001092DA0010
S11303001092F0001092F1001092F2001092F3009B
S11303101092C0001092C1001092C2001092C3004B
S11303201092DC001092DB001092EE001092ED00AF
S11303301092C6001092C5008FE08093C400109202
S1130340EF001092DD001092C700089581E084BB95
S11303508FEF85BB089580E181BB12BA8CE00E94C7
S1130360EB00089583E08ABB1BBA089583E087BB42
S11303708FEF88BB089584E089BF1FBC8BB780646E
S11303808BBF85B7816085BF789408951FBC1EBC60
S11303901DBC1CBC08951092F0001092F100109244
S11303A0F2001092F3001092DC001092DB0008952A
S11303B081E28FBD8AE08EBD80E690E099BD88BD64
S11303C008950E94C2004AE06DED70E08091DB0068
S11303D09091DC000E94D3044AE067EC70E08091C5
S11303E0ED009091EE000E94D30460E080E00E9452
S11303F0B8008DED90E00E94DB0061E080E00E9497
S1130400B80087EC90E00E94DB0008952FEF8FE79F
S113041094E0215080409040E1F700C000000E9429
S1130420D8010E94C20060E082E00E94B80080E629
S113043090E00E94DB0061E081E00E94B8008CE65D
S113044090E00E94DB002FEF8FEB91E2215080407F
S11304509040E1F700C0000008958091EF00811101
S113046003C081E08093EF000895CF93DF93CDB76D
S1130470DEB760970FB6F894DEBF0FBECDBF0E9403
S1130480D8010E94C2008091C400893178F48F5F42
S11304908093C4004AE0BE016F5F7F4F90E00E94EA
S11304A0D3048DE790E00E94DB0009C080E1EDE811
S11304B0F0E0DE01119601900D928A95E1F761E07A
S11304C087E00E94B800CE0101960E94DB002FEF66
S11304D08FE39BE0215080409040E1F700C0000092
S11304E060960FB6F894DEBF0FBECDBFDF91CF91FB
S11304F00895CF93DF93CDB7DEB760970FB6F89426
S1130500DEBF0FBECDBF0E94D8010E94C200809101
S1130510C400863078F081508093C4004AE0BE0164
S11305206F5F7F4F90E00E94D3048EE990E00E94B9
S1130530DB0009C080E1EEEAF0E0DE0111960190F3
S11305400D928A95E1F761E087E00E94B800CE0140
S113055001960E94DB002FEF8FE39BE02150804047
S11305609040E1F700C0000060960FB6F894DEBF3B
S11305700FBECDBFDF91CF910895B09903C00E9403
S113058035020895B19B0E94790208959BB3982B7C
S11305909BBB98E19A95F1F700C09BB380958923A2
S11305A08BBB089581E48EBD80E288BF08951DBC95
S11305B01CBC81E08EBD80E288BF1092D7001092EF
S11305C0D8001092D9001092DA00089508B605FEFA
S11305D0FDCF08958091C500811104C081E080930E
S11305E0C50008951092C50008958091C500811139
S11305F029C0E6B5F7B52091D7003091D8004091D5
S1130600D9005091DA00AFEFBFEF0E94B9046E0F2A
S11306107F1F811D911D6093F0007093F100809302
S1130620F2009093F3000E942B042DEC3CEE47ED76
S113063053E40E948A030E94FC037093DC006093DD
S1130640DB0008956091C0007091C1008091C200E8
S11306509091C3000E942B042DEC3CEE47ED53E433
S11306600E948A030E94FC037093EE006093ED00E5
S113067008950E94BD028091C500811115C00E9499
S1130680EA020E94C60182E00E94C60229E989E5C5
S113069091E0215080409040E1F700008091C50036
S11306A090E00E94F50218C00E94EA020E942D0206
S11306B00E94C6010E94CB0181E00E94C6020E94F2
S11306C0D2020E94E6020E94D7020E94E6028091B2
S11306D0C50090E00E94F5020E94D8010E94E10149
S11306E02FEF8FE39BE0215080409040E1F700C062
S11306F00000BFCF0E9478010E94A6010E94B601AB
S11307000E94AB010E94B2010E94BB010E9406023A
S11307100E9439030E949E030C947F040E94780473
S113072058F00E94710440F029F45F3F29F00C94C2
S1130730680451110C94B3040C946E040E94900448
S113074068F39923B1F3552391F3951B550BBB27FC
S1130750AA2762177307840738F09F5F5F4F220F41
S1130760331F441FAA1FA9F335D00E2E3AF0E0E838
S113077032D091505040E695001CCAF72BD0FE2F82
S113078029D0660F771F881FBB1F26173707480716
S1130790AB07B0E809F0BB0B802DBF01FF279358CE
S11307A05F4F3AF09E3F510578F00C9468040C9426
S11307B0B3045F3FE4F3983ED4F386957795679549
S11307C0B795F7959F5FC9F7880F911D9695879503
S11307D097F90895E1E0660F771F881FBB1F621722
S11307E073078407BA0720F0621B730B840BBA0BE0
S11307F0EE1F88F7E09508950E94980488F09F57AB
S113080098F0B92F9927B751B0F0E1F0660F771F30
S1130810881F991F1AF0BA95C9F714C0B13091F026
S11308200E94B204B1E008950C94B204672F782FAB
S11308308827B85F39F0B93FCCF3869577956795EB
S1130840B395D9F73EF490958095709561957F4F57
S11308508F4F9F4F0895E89409C097FB3EF49095FD
S11308608095709561957F4F8F4F9F4F9923A9F085
S1130870F92F96E9BB279395F69587957795679514
S1130880B795F111F8CFFAF4BB0F11F460FF1BC058
S11308906F5F7F4F8F4F9F4F16C0882311F096E9EB
S11308A011C0772321F09EE8872F762F05C0662399
S11308B071F096E8862F70E060E02AF09A95660F52
S11308C0771F881FDAF7880F9695879597F908950B
S11308D097F99F6780E870E060E008959FEF80ECEF
S11308E0089500240A941616170618060906089592
S11308F000240A9412161306140605060895092EF8
S11309000394000C11F4882352F0BB0F40F4BF2B66
S113091011F460FF04C06F5F7F4F8F4F9F4F0895A6
S113092057FD9058440F551F59F05F3F71F047959C
S1130930880F97FB991F61F09F3F79F08795089581
S1130940121613061406551FF2CF4695F1DF08C0A0
S1130950161617061806991FF1CF869571056105BD
S113096008940895E894BB2766277727CB0197F965
S113097008950E94C404A59F900DB49F900DA49F58
S1130980800D911D11240895A29FB001B39FC00151
S1130990A39F700D811D1124911DB29F700D811DA7
S11309A01124911D0895BB274A3031F4992322F470
S11309B0BDE2909581959F4F0C94DF04BB27FB010A
S11309C05527AA27880F991FAA1FA41710F0A41B44
S11309D083955051B9F7A05DAA3308F0A95DA1939E
S11309E0009779F7B111B1931192CB010C94F804EB
S11309F0DC01FC01672F71917723E1F7329704C082
S1130A007C916D9370836291AE17BF07C8F308950C
S1070A10F894FFCF84
S1130A145552532070726F6A656B74005061726B27
S1130A24696E672073656E7A6F72004F0052616E4F
S1130A34676520696E63726561736564004D6178EE
S1130A44696D756D2064697374616E6365005261C8
S1130A546E676520646563726561736564004D69DE
S1130A646E696D756D2064697374616E63650000ED
S9030000FC
